{
  "_format": "hh-sol-artifact-1",
  "contractName": "CertificateVerification",
  "sourceName": "src/Blockchain/contracts/CertificateVerification.sol",
  "abi": [
    {
      "inputs": [],
      "stateMutability": "nonpayable",
      "type": "constructor"
    },
    {
      "inputs": [],
      "name": "admin",
      "outputs": [
        {
          "internalType": "address",
          "name": "",
          "type": "address"
        }
      ],
      "stateMutability": "view",
      "type": "function"
    },
    {
      "inputs": [
        {
          "internalType": "address",
          "name": "",
          "type": "address"
        }
      ],
      "name": "certificates",
      "outputs": [
        {
          "internalType": "bytes32",
          "name": "hash",
          "type": "bytes32"
        },
        {
          "internalType": "uint256",
          "name": "timestamp",
          "type": "uint256"
        }
      ],
      "stateMutability": "view",
      "type": "function"
    },
    {
      "inputs": [
        {
          "internalType": "address",
          "name": "student",
          "type": "address"
        }
      ],
      "name": "getCertificateHash",
      "outputs": [
        {
          "internalType": "bytes32",
          "name": "",
          "type": "bytes32"
        },
        {
          "internalType": "uint256",
          "name": "",
          "type": "uint256"
        }
      ],
      "stateMutability": "view",
      "type": "function"
    },
    {
      "inputs": [
        {
          "internalType": "address",
          "name": "student",
          "type": "address"
        },
        {
          "internalType": "bytes32",
          "name": "certHash",
          "type": "bytes32"
        }
      ],
      "name": "uploadCertificate",
      "outputs": [],
      "stateMutability": "nonpayable",
      "type": "function"
    },
    {
      "inputs": [
        {
          "internalType": "address",
          "name": "student",
          "type": "address"
        },
        {
          "internalType": "bytes32",
          "name": "hashToCheck",
          "type": "bytes32"
        }
      ],
      "name": "verifyHash",
      "outputs": [
        {
          "internalType": "bool",
          "name": "",
          "type": "bool"
        }
      ],
      "stateMutability": "view",
      "type": "function"
    }
  ],
  "bytecode": "0x608060405234801561001057600080fd5b50336000806101000a81548173ffffffffffffffffffffffffffffffffffffffff021916908373ffffffffffffffffffffffffffffffffffffffff1602179055506105c4806100606000396000f3fe608060405234801561001057600080fd5b50600436106100565760003560e01c806216e5261461005b5780632e8c34761461008c5780636d6e7a9e146100a8578063c7aedd1f146100d9578063f851a44014610109575b600080fd5b61007560048036038101906100709190610397565b610127565b6040516100839291906103f6565b60405180910390f35b6100a660048036038101906100a1919061044b565b61014b565b005b6100c260048036038101906100bd9190610397565b610248565b6040516100d09291906103f6565b60405180910390f35b6100f360048036038101906100ee919061044b565b6102c1565b60405161010091906104a6565b60405180910390f35b610111610310565b60405161011e91906104d0565b60405180910390f35b60016020528060005260406000206000915090508060000154908060010154905082565b60008054906101000a900473ffffffffffffffffffffffffffffffffffffffff1673ffffffffffffffffffffffffffffffffffffffff163373ffffffffffffffffffffffffffffffffffffffff16146101d9576040517f08c379a00000000000000000000000000000000000000000000000000000000081526004016101d09061056e565b60405180910390fd5b604051806040016040528082815260200142815250600160008473ffffffffffffffffffffffffffffffffffffffff1673ffffffffffffffffffffffffffffffffffffffff16815260200190815260200160002060008201518160000155602082015181600101559050505050565b6000806000600160008573ffffffffffffffffffffffffffffffffffffffff1673ffffffffffffffffffffffffffffffffffffffff168152602001908152602001600020604051806040016040529081600082015481526020016001820154815250509050806000015181602001519250925050915091565b600081600160008573ffffffffffffffffffffffffffffffffffffffff1673ffffffffffffffffffffffffffffffffffffffff1681526020019081526020016000206000015414905092915050565b60008054906101000a900473ffffffffffffffffffffffffffffffffffffffff1681565b600080fd5b600073ffffffffffffffffffffffffffffffffffffffff82169050919050565b600061036482610339565b9050919050565b61037481610359565b811461037f57600080fd5b50565b6000813590506103918161036b565b92915050565b6000602082840312156103ad576103ac610334565b5b60006103bb84828501610382565b91505092915050565b6000819050919050565b6103d7816103c4565b82525050565b6000819050919050565b6103f0816103dd565b82525050565b600060408201905061040b60008301856103ce565b61041860208301846103e7565b9392505050565b610428816103c4565b811461043357600080fd5b50565b6000813590506104458161041f565b92915050565b6000806040838503121561046257610461610334565b5b600061047085828601610382565b925050602061048185828601610436565b9150509250929050565b60008115159050919050565b6104a08161048b565b82525050565b60006020820190506104bb6000830184610497565b92915050565b6104ca81610359565b82525050565b60006020820190506104e560008301846104c1565b92915050565b600082825260208201905092915050565b7f4f6e6c792061646d696e2063616e2063616c6c20746869732066756e6374696f60008201527f6e00000000000000000000000000000000000000000000000000000000000000602082015250565b60006105586021836104eb565b9150610563826104fc565b604082019050919050565b600060208201905081810360008301526105878161054b565b905091905056fea2646970667358221220ef3cb151fbf5c97eaa733b94284d2faa67138dcbd73bb6ba7fadb8164d833a8b64736f6c63430008140033",
  "linkReferences": {},
  "deployedLinkReferences": {}
}